:020000040800F2
:10000000D804002005340008CB330008CD330008A5
:10001000CF330008D1330008D333000800000000BC
:10002000000000000000000000000000D5330008C0
:10003000D733000800000000D9330008DB33000884
:100040002F34000833340008373400083B340008EC
:100050003F34000843340008473400084B3400089C
:100060004F34000853340008573400085B3400084C
:100070005F34000863340008673400086B340008FC
:100080006F34000873340008773400087B340008AC
:100090007F34000883340008873400088B3400085C
:1000A0008F34000893340008973400089B3400080C
:1000B0009F340008A3340008A7340008AB340008BC
:1000C000AF340008B3340008B7340008BB3400086C
:1000D000BF340008C3340008C7340008CB3400081C
:1000E000CF340008D3340008D7340008DB340008CC
:1000F000DF340008E3340008E7340008EB3400087C
:10010000EF340008F3340008F7340008FB3400082B
:10011000FF34000803350008073500080B350008D8
:100120000F35000813350008173500081B35000887
:100130002DE9F84F74A7A2B0D7E90045CDE90045F5
:100140002C9EDFF8307C04918DF843605FF0000155
:100150006FA40D9112944FF0FF3682469046994657
:100160000FE0C3462C461BF8011B0498D04700281B
:10017000049000F0B2800D98401C641E0D90F2D1E6
:10018000A84498F80000252807D10021079108917C
:1001900009910A910B910C910DE06A463146404657
:1001A00000F0D0FF050001D10D98B5E0D9D50125AB
:1001B000E6E741F0010118F8010F2028F9D02328C3
:1001C0000CD02B2804D02D2805D0302809D086E06B
:1001D00041F00201EFE741F00401ECE741F00801D2
:1001E000E9E741F01001E6E700200F900AE00F98E0
:1001F000B84205DA00EB800302EB4302303A0F927B
:1002000008F1010898F80020A2F130000A28EED386
:1002100098F800002E2818BF0E9629D118F8010F63
:100220002A280BD1D9F80000C9F8000008F101080C
:1002300050F8042BC9F800000E9219E02D280CBFCD
:1002400018F8010B002000220E920BE040B90E9A24
:10025000BA4205DA02EB820403EB4403303B0E930F
:1002600008F1010898F80030A3F130020A2AEDD312
:10027000ADF84010129898F8001000F06DFF08B12A
:1002800018F8010B8DF842009DF84200682804BF61
:1002900098F80010682903D162208DF8420008E028
:1002A0006C2804BF98F800006C2804D171218DF8E7
:1002B000421008F1010813A806904A4618F8013BBD
:1002C00002A9504600F068F838B913AA02A95046AE
:1002D00000F0CAF900287FF554AF30461CE02A2808
:1002E00082D1D9F80020C9F8002052F8040BC9F8CF
:1002F000002000280F9003D540420F9041F00401E8
:1003000008F1010884E70000000000000000000080
:10031000686A6C747A4C000023B0BDE8F08F6228E4
:1003200020D0682811D06A2803D06C2827D07128E3
:1003300025D10868C01D20F007000860D0E900231F
:1003400008300860194610467047002A0A680A609B
:10035000106803D0121D0A6000B217E0121D0A6077
:1003600080B217E0002A0A680A60106803D0121DE4
:100370000A6040B20AE0121D0A60C0B20AE0002A18
:100380000A680A60106803D0121D0A60C11770471E
:10039000121D0A60002170477CB50D4611461C46AF
:1003A0002E69B4F1250200F04D811C3A00F08680E0
:1003B000121F022A40F282800E3A00F00781521F7B
:1003C0005AD0093A7AD0921E16D0521E35D0521EFB
:1003D000022A73D9121F30D0521F00F09A80521E89
:1003E0004AD0521E00F0E480D21E00F0FD80921E22
:1003F00042D0D21E40D02BE195F83A206C2A09D089
:100400006869421C6A610A680A6052F8043B0A6023
:10041000335427E10A680A6052F8043B0A6000215D
:10042000009301914FF0FF322A6329466A4600F09B
:1004300096F9002840F1168101E195F83A00012271
:10044000FFF76DFFC5E900010023994204DA6869EE
:10045000411C69612D210DE0288F810704D5686951
:10046000411C69612B2105E0C00722D56869411C48
:100470006961202131541CE095F83A000022FFF711
:100480004EFFC5E9000195F83800010711D5D5E9FF
:1004900000230020834208BF82420AD044F020009B
:1004A000782806D1686930213154401C411C6961AB
:1004B0003454214668693044E86083E00868C01D10
:1004C00020F007000860D0E9002308300860C5E983
:1004D0000023D5E90001C80F04D06869411C696197
:1004E0002D210DE0288F810704D56869411C6961C1
:1004F0002B2105E0C00704D56869411C69612021F2
:10050000315468693044E8602146284600F032FAE8
:10051000A8E005F13A02507820B14FF0FF340FF611
:10052000243070E01078622808D0682824D06A2827
:1005300012D06C282ED071280ED02BE00A680A60E9
:1005400052F8040B0A6020B94FF0FF340FF60C305C
:1005500059E0E96A017085E00A680A6052F8040B04
:100560000A6020B94FF0FF340FF6F0204BE0EA6A42
:10057000D317C0E9002375E00A680A6052F8040B3B
:100580000A6020B94FF0FF340FF6D0203BE0E96A53
:10059000018067E00A680A6052F8040B0A6020B91B
:1005A0004FF0FF340FF6B4202DE0E96A016059E006
:1005B0000A680A6052F8040B0A600021C5E90001CC
:1005C000EE607821284600F029F94BE06C2285F88E
:1005D0003A200B680B6053F8042B0B6052BB4FF0B2
:1005E000FF340FF6AC200EE095F83A206C2AF0D0DC
:1005F0000868086050F8044B0860EC603CB94FF0A4
:10060000FF340FF6702000F0B7FD201A76BD2E6B78
:10061000002E04D5204600F0CFFD044608E0324607
:100620000021204600F0E4FD002814BF041B3446DE
:10063000AC6117E0294600F092F8002812D54FF07F
:10064000FF3076BD6869411C69612521315409E09C
:100650006969481C686125227254210002D0411C3E
:1006600069613454002076BD2DE9F0410E460546FF
:10067000716B7069B46A091A306A091AB069091A8B
:10068000706A091AF069091A96F838000C1B4107BC
:1006900090460DD4002C0BDD2746B0682021A847DA
:1006A0000028B06057D0F06A401C7F1EF062F4D181
:1006B000736942463146284600F0ACFC00284AD116
:1006C000376A002F0ADDB0683021A8470028B060E3
:1006D00041D0F06A401C7F1EF062F4D1B369F26829
:1006E0003146284600F096FCA8BB776A002F09DD4A
:1006F000B0683021A847B06068B3F06A401C7F1E24
:10070000F062F5D1F068B169F369421831462846C4
:1007100000F080FCF8B9B76A002F09DDB06830211D
:10072000A847B060B8B1F06A401C7F1EF062F5D1F6
:1007300096F8380041070BD5002C09DDB068202160
:10074000A847B06038B1F06A401C641EF062F5D171
:100750000020BDE8F0814FF0FF30BDE8F0812DE9C9
:10076000F8470D46A3B02F6B002F8146904648BF37
:100770006FF0004700F068FD696B40180FF62C1110
:100780008128D1E90023CDE9012328BF4FF0FF30B4
:100790003ED20024002F2FDDD8F8001001AA6846B1
:1007A00000F0D2FC0646002E35D4D8F8000008B977
:1007B000761E30D4B7421FDB6869301881280AD30F
:1007C0000020686303AA29464846FFF74DFF04004E
:1007D00012D40020686103A8D5F814A032466946F7
:1007E000504400F037FDB244C5F814A058F8040B8B
:1007F000002818BFBF1BCDD12CB903AA29464846F3
:10080000FFF732FF044614B9002068616863204690
:1008100024B0BDE8F0874FF0FF34F8E72DE9FC473E
:1008200007468A463E69BAF16F0F08BF082405D013
:100830004AF02001782914BF0A2410243C25D7E966
:100840000023BAF1640F18BFBAF1690F90469946B8
:1008500006D100218B4203DAD8F1000869EB49097F
:100860000020814508BF80451FD1386BE8B9082CAE
:100870004CD197F83800010748D530203B2586F841
:100880003B0043E000280ED597F8380000F0140034
:10089000102808D17A6B7869121A386A121A511A1C
:1008A0000029C8BF3962BDE8F3878DF800A0404633
:1008B00049462246E31700F021FD3032D0B26D1ECA
:1008C0003A28019504DB9DF80000A0F151018A1837
:1008D0007255404649462246E31700F00FFD804618
:1008E00089460020814508BF804503D0F86871190A
:1008F0008842DCD3082C09D197F83800010705D5C8
:10090000715D302902D06D1E30207055C5F13C015B
:10091000B9617019F860386B8142B3DA411A3962F3
:100920004FF6EF70398F01403987BDE8F3872DE925
:10093000D04306460F4614464FF00008DFF83894BF
:1009400012E0E00707D542464B463046394600F0F4
:10095000EDFD06460F464046494642464B4600F0EE
:10096000E5FD641080468946002CEAD130463946C0
:10097000BDE8D0832DE9F34F054641F020048DB04A
:10098000D5E90089612C02AE09D0286B002848BF48
:10099000062003D408BF672C01D101202863D5E9C4
:1009A000002358004015401C0ED119030CD0032021
:1009B000A8619DF8380061381A2802D20FF2F4615C
:1009C00011E00FF2F4610EE058004015401C0FD109
:1009D00019030DD10320A8619DF8380061381A2849
:1009E00014D30FF2DC61E868032200F033FCD3E19A
:1009F000194621F00043B3F5801F10460DD20027A1
:100A0000BB4208BFBA42019703D111E00FF2AC61BB
:100A1000E9E701AA00F05CFE0AE0DFF8607307EB8B
:100A20001352DFF85C3301921940DFF85833194351
:100A3000C5E90001612C0ED1E86830210170811CEC
:100A4000E9609DF8381061290CBF78215821417068
:100A50006869801C6861D5E900AB2BF00043002079
:100A60002AF00002834204BF8242002300F05A8130
:100A7000612C40F0A980286B00284CBF2120401C2D
:100A800000904046009F7F1C49460022002300F052
:100A900057FED94601988DF8082038BF89F00049E3
:100AA000001F0190002FD0460DF1090040F349814D
:100AB00040F2FF71DFF8D0B20C910646404649463D
:100AC0000022002300F054FE80F03A814800400DDF
:100AD00000F11C0210D0002A0EDD0C98824205DBCA
:100AE00009F0004040EA0B01002013E0A448084050
:100AF00040EA025140460DE029F00043002028F072
:100B00000002834208BF82420FBF40461C2240467B
:100B100000F046FE8046894600F0E0FEFF1F002FF1
:100B2000044609DD00F0F8FE02460B464046494601
:100B300000F004FF80468946F01D072104E004F020
:100B40000F0200F8012D2411002C01DD491EF6D5FD
:100B5000491E5CBF002200F8012DF9D5ECE0002011
:100B6000194602AA0A4400E05B1E12F80149491E18
:100B70008442F9D00F2804D10DF10900425C521CC7
:100B80004254002904D50198001D02AE5B1C01905F
:100B9000591E12D49DF838007218147804F13008E8
:100BA0005FFA88F4392CC4BFA0F13A04A044491E6E
:100BB00002F80189F1D58DF83800286B002840F142
:100BC000B080591E2963ACE040464946002200230C
:100BD00000F0B6FD019938BF89F0004947F29750FF
:100BE00041436A4A91FBF2F20192D2F1070204DD1D
:100BF00040464946FFF79BFE0AE052420020644906
:100C0000FFF795FE02460B464046494600F008FFB6
:100C10008046662C286BDFF87CB106BF019F0A373F
:100C200006273F18142FC8BF142730208DF808005E
:100C300089460DF1090000E03046002F34DD0646FC
:100C40004046494601F010F801460A4606F10803FD
:100C500004200A26B2FBF6F606EB860EA2EB4E0245
:100C6000303203F8012C0A22B6FBF2F202EB820EBC
:100C7000A6EB4E063036401E03F8026DE9D1083F60
:100C8000002F03F10806D7DD084601F001F80246FF
:100C90000B464046494600F051FE00225B4600F0FC
:100CA00045FC80468946CBE70DF10901401A0DF15C
:100CB000090604E00199491E401E0191761C317815
:100CC0003029F7D0662C02D10199491C03E0652C2C
:100CD0000CBF012100212B6BCB189842B8BF431EDB
:100CE000002B1ED4834204DAF05C3528A8BF3920DB
:100CF00000DA30201946721E02EB010800E05B1E8C
:100D000018F80199491E8145F9D0392802D1705C43
:100D1000401C7054002904D50198401C16465B1CE9
:100D20000190019800B200901BB29DF83810324635
:100D3000284600F035F82FE0C61D002F3FF7BEAE65
:100D400030460DF10901401A009903468842C8BF98
:100D50000B46002B0DF109063FF52FAF8342BFF67E
:100D6000FEAE0DF10900C05C07287FF7F8AE0F203A
:100D7000F6E60000CBCCCC0C0000244002FCFFFFC8
:100D8000FFFF0F800000E03F0000F07FA086010021
:100D90000000F03F84D797410FB0BDE8F08F00000E
:100DA0002DE9F84783B006468A461746984600F074
:100DB000CDF9B8F1000F406A356B90F8009002DC75
:100DC0004FF00108BFA7BDF930404AF02000662867
:100DD00008BF641C15D0672840F0848014F1040F0C
:100DE000C0F28680AC4280F2838096F83800641CA2
:100DF000010702D4A845B8BF454620B22D1A48BF06
:100E000000250FFA84FAF068B169BAF1000F25DC09
:100E10004A1C30234354002D03DC96F838000107A8
:100E200003D5F06800F80290521C15EB0A0FB8BF0A
:100E30006C4220B2441941424445B8BFA046B26159
:100E400071620FFA88F5F561F068B3692A46394690
:100E5000184400F0FFF9641BB462C4E022B290456C
:100E6000084417DA4246394600F0F4F9B0694044C4
:100E7000B061AAEB0801002D716203DC96F838100E
:100E80000A0705D5F16801F80090F069401CF0618F
:100E9000B562A8E0394600F0DDF9B069002D504494
:100EA000A8EB040803DC96F838100A0703D5F168AC
:100EB00001F80090401CB0610FFA88F08542F0689C
:100EC000B369B8BFA8460FFA88F207EB0A011844C5
:100ED00000F0C0F9B0690FFA88F10844B061681AEF
:100EE000706280E0BAF1610F14D14FF0700A16E021
:100EF000A84504DA96F838100A0758BF45466D1E13
:100F000048BF0025BAF1670F14BF4FF0450A4FF0F4
:100F1000650A04E0BAF1410F08BF4FF0500AB16909
:100F2000F368481CB061002D17F8012B5A5403DCFC
:100F300096F838100A071BD5F168431CB36101F815
:100F40000090002D14DDA8F101080FFA88F0854209
:100F5000F068B8BFA8460FFA88F23946184400F086
:100F600079F9B0690FFA88F108446D1AB0617562B9
:100F7000F068B1690844002C80F800A003D42B214C
:100F80004170811C03E02D2141706442811C0020CE
:100F90006A460AE023460A2493FBF4F404EB840532
:100FA000A3EB450302F8013B401C24B2002CF1DC0A
:100FB000012806DC4AF02002652A04BF302201F82D
:100FC000012B48B9302001F8010B07E0401E1DF845
:100FD0000020303201F8012B0028F7DCF068B269FC
:100FE0001044091AF16196F8380000F01400102836
:100FF0000DD17169B0694118706A4118F0694118E2
:10100000B06A4118706B8142BCBF411A316204B0B2
:10101000BDE8F087F8B505460E4617461C46002089
:1010200074B117F8011BB068A847B06030B1F06A1E
:10103000401CF0620020641EF3D1F2BD4FF0FF307F
:10104000F2BD00007072696E74665F733A20256E9F
:1010500020646973616C6C6F776564007072696E8F
:1010600074663A2062616420256E20617267756D36
:10107000656E74007072696E74665F733A206261A7
:101080006420257320617267756D656E74000000C1
:101090007072696E74665F733A2062616420256CB9
:1010A0007320617267756D656E740000000000004A
:1010B000000000006E616E004E414E00696E6600D9
:1010C000494E46003000B1F5807F02D34FF0FF302B
:1010D00070470170012070470078401E8041C04376
:1010E000C00F70471A48704730B45368D418042BA7
:1010F00009DA41B1057804F8015B10F8015B15B11C
:101100005B1C491EF3E7536030BC704738B514468A
:101110001D4661B1FFF7E8FF61686A6B20469047A2
:101120006FF00102811A02D0491E03D005E06FF072
:10113000010032BD4FF0FF3032BD0021616032BD91
:10114000DA6B1047024BE1E7014BF9E701487047C2
:1011500048000020100000200278C9B28A421AB16B
:101160001CBF10F8012FF9E718BF00207047026874
:10117000531C03601170704780B500B906A0054983
:101180000B681BB122220021984701E000F08DFD81
:10119000222002BDD4000020636F6E7374726169F7
:1011A0006E742068616E646C65723A2062616420BE
:1011B0006D6573736167650000F10103810704D0F9
:1011C00010F8011B89B18107FAD10268B2F101312F
:1011D000914311F0803F04BF50F8042FF6E710F858
:1011E000011B11B110F8011BFBE7C01A704700008A
:1011F000C9B2830706D0521E22D310F8013B994290
:10120000F7D11FE0083A13D302F1040241EA0121A9
:1012100041EA014150F8043B121F21BF4B40A3F1AA
:10122000013C2CEA030C1CF0803FF3D0C9B2001F34
:10123000083210F8013B521E28BF91EA030FF8D87C
:1012400018BF0120401E704780B5FFF74BFF006CB0
:1012500002BD000062B38B0708D0521E11F8013B9B
:1012600000F8013B00F024808B07F6D1830740F0A3
:10127000208000BF103A07D330B4B1E83810103ADC
:10128000A0E83810F9D230BC530724BFB1E80810E9
:10129000A0E8081044BF51F8043B40F8043BD207D3
:1012A00024BF31F8022B20F8022B44BF0B780370C7
:1012B0007047121F17D35B0009D151F8043B20F887
:1012C000023B1B0C121F20F8023BF6D20BE051F838
:1012D000043B00F8013B1B0A20F8023B1B0C121FC9
:1012E00000F8013BF3D238BF121D521E24BF11F883
:1012F000013B00F8013BF8D870470000B3BBD9B1FF
:10130000B2F5803F7DD2022A1ED98C46B1FBF2F1A4
:1013100002FB11C31B0443EA1043B3FBF2FC02FBC4
:101320001C3380B240EA0343B3FBF2F002FB1032FD
:1013300040EA0C4000237047022A05D98446B0FBDE
:10134000F2F002FB10C270474AB105D100F0010271
:1013500049085FEA3000704700220023704700F020
:10136000A7BC0B000200002100207047904271EBE7
:10137000030CF6D3B3F5803F2FD2F0B5B3FA83F761
:10138000B1FA81F4A7F10F0E3D1B5340CEF12006B8
:1013900002FA0EF2F3415340B5F10F0746D80F3C65
:1013A0002C444140C4F12006A040F1414140B1FB32
:1013B000F3F603FB1611A2FB0645001BA94102D25E
:1013C000761E8018594180EA010221FA0EF362FA72
:1013D0000EF200215A403046F0BD30B4B1FBF3FCB0
:1013E00003FB1C11A2FB0C45001BA94103D2ACF16D
:1013F000010C8018594130BC02460B466046002162
:101400007047B2F1807F65D3F0B5B2FA82F7B1FAD6
:1014100081F4C7F10F063D1B22FA06F307F1110E06
:10142000F24120355A40B5F10F07B8D94140C4F117
:101430002006A040F1414140B1FBF3FC03FB1C112D
:10144000A2FB0C45001BA94103D2BCF1010C801882
:1014500059410F2F12D30F3FC90341EA5041B1FB4D
:10146000F3F603FB1611A2FB0645D4EBC030A941ED
:1014700002D2761E8018594146EACC3C07B341405F
:10148000C7F12006B840F1414140B1FBF3F603FB40
:101490001611A2FB0645001BA94102D2761E801838
:1014A000594180EA010221FA0EF3C7F1200462FAE1
:1014B0000EF20CFA07F05A402CFA04F13043F0BD5A
:1014C00080EA010221FA0EF3002162FA0EF2604670
:1014D0005A40F0BD8C46B1FBF2F102FB11C31B0276
:1014E00043EA1063B3FBF2FC02FB1C331B024CEA21
:1014F000002043EA1063B3FBF2FC02FB1C331B0227
:101500004CEA002043EA1063B3FBF2FC02FB1C33FD
:101510001B024CEA002043EA1063B3FBF2FC02FB1F
:101520001C324CEA0020002370470000B0B581EA6D
:10153000030C0CF0004C40F2FF7515EA11541DBF6E
:1015400015EA1357AC42AF4239E0E41923EA455398
:1015500043F48013C90241F0004141EA505EC702E2
:101560001100A7FB020200284FF00000EEFB012053
:101570004FF00001E3FB072118BF42F001024018C1
:1015800000214941E3FB0E01A4F580640F0302D260
:1015900052004041494154F101046CDD470872F1A9
:1015A000004250F1000051EB0451A1F580115CBFE5
:1015B00041EA0C01B0BD4CEA05510020B0BD05EA7E
:1015C0001357AC4214BFAF4241E050EA410E1CBF7A
:1015D00052EA430E02E061460020B0BD24423C4482
:1015E0001BD15FEA070EF6D0090302BF01460020B7
:1015F000AEF1140EB1FA81F7AEEB070401FA07FE63
:101600000C37C7F1200100FA07F7C8404EEA000E78
:1016100023EA455343F48013A2E733F00043B3FABF
:1016200083F704BFB2FA82FE77440B3FE41BB7F1A5
:10163000200E2FBF02FA0EF3BB40C7F1200E22FA94
:101640000EFE38BF43EA0E03BA40641C82E750EA3C
:10165000410E14BF52EA430E6FF000014FF4001721
:1016600017EB430F8ABF194617EB410FB5E74CEA5A
:1016700005510020B0BDD4F10104B4F120070FDA08
:10168000C4F12007520828BF42F0010210FA07F502
:1016900001FA07F7E1BF2A43E0403843E1400FE099
:1016A000352C98DCC7F1200452EA400220FA07F2F8
:1016B00018BF42F0010231FA07F0A1400A430021AD
:1016C00072F1004250F1000051EB0C01B0BD00007E
:1016D00010B5144600F002F8226010BDC1F30A53A1
:1016E00043B14A0012F5001F28D2A3F2FE32A1EB4B
:1016F0000251704750EA410C20D001F0004C31EA11
:101700000C01B1FA81F204BFB0FA80F3D2180B3A9F
:10171000B2F120032CBF00FA03F1914041EA0C0121
:101720003EBFC2F1200C20FA0CF319439040524204
:1017300040F2FD33D21A01EB03517047002270478B
:101740004FF4001C1CEB410F94BF1CEB430F09E04E
:1017500041EA030C50EA4C0C52EA0C0C03D29942B9
:1017600008BF9042704714BF8B428242704700000E
:101770004FF4001C1CEB410F94BF1CEB430F09E01E
:1017800041EA030C50EA4C0C52EA0C0C03D28B4297
:1017900008BF8242704714BF9942904270470000D0
:1017A000124254D440F2FF7C1CEA11530FD063451F
:1017B00031D09B1863453CBF01EB0251704701F0EB
:1017C000004141EA0C510020AFF30080704750EA1D
:1017D000410320D001F0004C91EA0C011CD0B1FA79
:1017E00081F30B3B9A420DD9D21A994051EA0C0170
:1017F000C3F1200C20FA0CFC61449840531C40F2C9
:10180000FF7CD7E7914041EA0C01C2F1200C20FA9D
:101810000CF3194390407047B0FA80F31533202B36
:10182000E0D3202AEED3203A203B9A4209D9D21A9B
:1018300000FA03F141EA0C010020531C40F2FF7C46
:10184000B8E700FA02F141EA0C0100207047524269
:1018500040F2FF7C1CEA11530DD06345DBD0B2EBA4
:10186000030C3CBFA1EB025170470CF1010221EACD
:10187000035141F4801150EA410CCCD001F0004CEE
:10188000352A27DC30B481EA0C01B2F1200309DAF1
:10189000C2F12003044601FA03F5D0402843D140A9
:1018A0009C400CE0C3F12002450020FA03F418BF6D
:1018B00044F0010421FA03F091400C43002174F13B
:1018C000004550F1000051EB0C01244230BC7FF484
:1018D0007BAF70476146002076E70000C1F30A53F2
:1018E00040F2FE329B1A14DDD3F120034FEAE1727D
:1018F00008DDC90241EA505141F00040D84080184B
:101900005040704703F2E13010B1D24382F0004002
:101910007047002070470000C11768B14840401A66
:10192000B0FA80F29040D21CC907C2F5846241EA45
:10193000025202EBD02140057047000070B44FF016
:10194000004591EA030F40F1B5816B40841A71EBB9
:10195000030603D2001BB141121973414FF4001C5E
:101960001CEB410F34BF7CEB430442E00C0DA4EBB5
:101970001356352E4FDC45EAC323DB0A45EAC12165
:10198000C912B6F120050DDD63FA05F6EB4086EAD3
:101990000305124218BF45F00105C01851F10001BE
:1019A0000CD213E062FA06F5F2405540F3415A407A
:1019B000B340F3405A408018594107D349085FEAC1
:1019C00030005FEA350528BF45F0010501F58011BB
:1019D000420875F1004250F1000041EB04514E0005
:1019E00016F5001F70BC38BF70470020090D0905AF
:1019F00070471CEB410F10D252EA43060BD0BCEBF0
:101A0000410F05D80C0DAB43661E342EB6DD02E047
:101A1000AB438018594170BC704770BC70470000E0
:101A2000F0B540F2FF7581EA030C0CF0004C15EAAA
:101A300011541DBF15EA1357AC42AF42E5E0BC415B
:101A4000C1F31301C3F31303801A994143F48013C4
:101A500004D2641E4000494180185941C90241EA3C
:101A60005051B1FBF3F603FB1611A2FB0675D7EB41
:101A7000C020A94102D2761E80185941C90241EA0C
:101A80005051B1FBF3FE03FB1E11A2FB0E75D7EB09
:101A9000C020A94103D2AEF1010E8018594189023C
:101AA00041EA9051760546EA8E2EB1FBF3F603FB30
:101AB0001611A2FB0675D7EB8020A94102D2761E33
:101AC00080185941C90241EA50514EEA060EB1FB55
:101AD000F3F603FB1611A2FB0675D7EBC020A94154
:101AE00002D2761E80185941C90241EA5051B1FB19
:101AF000F3F703FB1711A2FB0735D3EBC020A94175
:101B000067F100070CBF004247F0010766F3D527D5
:101B10004FEA1E31B80814F5806412DDBD0775F177
:101B2000004250EB0E5051EB045111F5801F5CBF89
:101B300041EA0C01F0BD4CF07F6141F0E041002032
:101B4000F0BDBD076D0840EA0E5041F48011D4F19C
:101B50000104B4F120060ADAC4F120060200E040D4
:101B600001FA06F3E1401843B24015430EE0342C6D
:101B700013DCC6F1200445EA40056D0820FA06F2A0
:101B8000154321FA06F0A1400D43002175F10042F2
:101B900050F1000051EB0C01F0BD00205FEA0C0198
:101BA000F0BDCFB992185B41B3FA83F704BFB2FA24
:101BB00082F6BF190B3FB7F120062FBF02FA06F3DA
:101BC000BB40C7F1200622FA06F638BF3343BA40BD
:101BD0001CB1E419641E33E77F4231F00041B1FAD1
:101BE00081F404BFB0FA80F6A4190B3CB4F12006CE
:101BF0002FBF00FA06F1A140C4F1200620FA06F634
:101C000038BF3143A0403C1B1AE7AC421ABF05EA7B
:101C10001357AF4212E050EA41061CBF52EA430696
:101C2000BFE750EA4107304661461CBF41EA055113
:101C3000F0BD52EA430C08BFC143F0BD00204FF491
:101C4000001616EB410F98BF16EB430F08BF16EBBB
:101C5000410F24BFC14305E016EB430F0CBF6146A3
:101C60004CEA0551F0BD0000400D491840EA8120C2
:101C70000CD2490DA1F58061491C40F0004005DB04
:101C8000D1F11F0154BFC840C017704700207047F2
:101C9000014648B1B0FA80F18840C91CC1F58461A1
:101CA000090501EBD02140057047012000F0B6B8CE
:101CB00070470000841A71EB030604D26E40001BCB
:101CC000B141121973414FF4001C1CEB410F34BF9A
:101CD0007CEB430682E00C0DA4EB1356362E7BDC26
:101CE000012E45EAC32341DC43EA525312BFD2021C
:101CF00092025B08240545EAC12141EA5051D2EB2A
:101D0000C020994125D407D1B0FA80F610FA06F127
:101D100062D00020203608E0B1FA81F6B140C6F169
:101D2000200220FA02F21143B0404FEAF474B4EBFF
:101D3000465434F001064FEA74040AD8D6F500166A
:101D4000760D04F00044F04061FA06F25040F14094
:101D50004840C00A40EA415021F0004128BF5FEAF4
:101D6000500550F1000044EBD12135E0DB0A45EA93
:101D7000C121C90AB6F120050EDD42EA0242120C69
:101D8000C5F1200603FA06F6EB4042EA06056D426D
:101D9000984161F100010DE062FA06F5F24055400C
:101DA00063FA06FC82EA0C02F3405A406D4290410D
:101DB00061EB030111F4801F05D1641E620502D09E
:101DC0006D004041494121F48011430875F1004301
:101DD00050F1000041EB045170BC70471CEB410F07
:101DE00015D223F0004352EA43060BD04FEA4C0CC5
:101DF000BCEB410F04D80C0D661E342EB7DDEBE7AB
:101E0000801A994150EA410608BF0021E4E708BF63
:101E10001CEB430F28BF6FF00001DDE780B5AFF387
:101E20000080024A11001820ABBEFBE7260002002A
:101E3000F8B5044600270026002C7AD004F12405CA
:101E4000686820B9AE602870204600F0AAFA2046E3
:101E500000F064FA6968CA066CD401006AD1696846
:101E600021F4885141F0020169602368DFF87014A1
:101E7000E269D4F804C08B4204BFB2F5402F4FF49E
:101E80000022217B42EA0C02D4F808C0BCF5807F16
:101E900014BFBCF1010F4FF4807794F814C0BCF16B
:101EA000010F42EA41020FD131B9A169491E49032C
:101EB00041F400610F4307E0696841F02001696067
:101EC000A96841F00101A960596821F469410F43F3
:101ED0005F602368DFF80C149F680F4017439F6012
:101EE000A168B1F5807F18BF012902D12669761E4D
:101EF00036052168CB6A23F470031E43CE62246842
:101F0000DFF8E413A3680B40934208D10021A960D5
:101F1000696821F0020141F001016960F2BD686861
:101F200020F0020040F010006860A86840F0010056
:101F3000A86003E0686840F0100068600120F2BD0E
:101F40007CB500F022F801D1022076BD00F0D9F86E
:101F5000010019D16A68DFF8941300F0E0F80DD1A0
:101F60000E6816F4702F09D000F0C4F800F0CDF818
:101F700046BFAB6823F00603002302E000F0ABF895
:101F8000F4E700F0AFF8D5E0A2E0044604F1240540
:101F90002878012870472DE9FC4105460020009073
:101FA0000C4600F02FFA804628688168CA0505F1C2
:101FB000240707D5786840F0200078600021397048
:101FC000012083E04168CA0516D4C06A10F4700F7E
:101FD00012D12968086882075DD414F1010FF8D086
:101FE0002CB100F00FFAA0EB08008442F1D228686F
:101FF00001688A07EDD446E0022000F077FA2968EC
:10200000DFF8ECE20E69DFF8EC22DFF8EC3216EADA
:102010000E0F02BFCE68DFF8E4E216EA0E0F07D11A
:102020000E691E4205BFC96811422926142610E018
:102030000E691E4204BFCB68134207D00B69DFF85C
:10204000C022134204BFC968114201D1542600E0E6
:10205000FC26DFF8B0120A68B2FBF0F0464302E05B
:102060000098401C00900098B04214D214F1010F67
:10207000F6D02CB100F0C6F9A0EB08008442EFD2F4
:102080000098B042ECD2786840F0040078600021FB
:10209000397003201AE029686FF012000860786830
:1020A00040F400707860296800F05DF804BF287B78
:1020B00000280AD1796821F4807179607868C104B8
:1020C00003D4786840F0010078600020BDE8F68114
:1020D00000222A7076BD6E6826F480166E605B68FA
:1020E0005E057047AB6000232B706FF0020325681C
:1020F0002B6070476B6843F480136B600E68730548
:102100007047012129702046B1E005D56B6823F4A2
:10211000005343F480536B606B68DE0470470A40E1
:1021200042F480726A602368DFF8DC21DFF8DC119A
:102130009342704723689C6804F46024B4F5602FD0
:1021400009D1934203D1096811F4702F03D1996822
:1021500041F4A00102E0996841F48011996076BDD4
:102160000068C06C7047886800F46020B0F5602F8C
:102170007047F8B50A46002100F1240300911C784D
:10218000012C01D10220F2BD01251D701F275468CA
:1021900015680668072C08D2641E04EB8404D6F880
:1021A00034C000F05EF8756312E00D2C08D2E41F15
:1021B00004EB8404D6F830C000F053F8356307E030
:1021C0000D3C04EB8404D6F82CC000F04AF8F5620C
:1021D00007271668946805680A2E08D30A3E06EB9E
:1021E0004606D5F80CC000F036F8EC6006E006EBC9
:1021F0004606D5F810C000F02EF82C611468102C9B
:1022000018BF112C23D10068414CA0421AD141487B
:10221000046825021BD4056845F4000505601068B4
:10222000102814D1374C3C482568B5FBF0F00A2241
:1022300050430090009800281EBF009A521E009242
:10224000F8D104E00121586840F0200058600020D7
:1022500018700846F2BDB7402CEA0707B4403C436B
:102260007047A7402CEA0707A5403D43704738B5A3
:1022700004460020009020688168CA072ED4816837
:10228000254A41F0010181601E480168B1FBF2F26C
:10229000009202E00098401E009000980028F9D1BA
:1022A00000F0B0F8054621688868C10716D400F030
:1022B000A9F8401B0328F6D320688168C807F2D428
:1022C00004F124000022416841F01001416081685E
:1022D00041F0010181600270012032BD002032BD59
:1022E000003C0140FDF7E1FFFE0E1FFFFEFDFFFF7A
:1022F00024499224922449009224491224499200AC
:10230000499224000C0000200028014004240140D0
:10231000002401400824014040420F0038B5044623
:1023200020688168CA071DD5816849084900816015
:1023300000F068F8054620688168C80712D500F0EB
:1023400061F8401B0328F6D320688168C807F2D5DE
:10235000A06A40F01000A062E06A40F00100E06274
:10236000012032BD002032BD224881B0016841F019
:1023700001010160026802F00102009200994168C7
:1023800041F080514160406800F08050009000981A
:102390001948016821F0E06141F00071016001B06D
:1023A000704718B585B0044601A8102100F00EF959
:1023B0002168124A91421AD10E48026842F4007212
:1023C00002600322016801F4007100910099016824
:1023D00041F0040101600221006800F00400009057
:1023E000009807480191029201A900F0F3F806B0A5
:1023F00010BD0000181002400400014000240140FC
:102400000008014001484068704700BF00000020FC
:102410002DE9FC410646624D3078C10750D5A869C8
:102420000024C10009D4A86940F08050A8610124AB
:10243000A86900F08050009000985A4F3968C8058C
:1024400017D4386840F480703860FFF7DBFF8046AF
:102450003968C8050DD4FFF7D5FFA0EB0800652843
:10246000F6D303203FE0FFF7CDFFC01B404519D353
:10247000F7E7E86910F440701EBF716801F440711D
:10248000884212D04849E86901220A6020F440706D
:1024900000220A60E861C00707D5FFF7B3FF0746CF
:1024A00041F28938E8698107DDD5E969706821F46E
:1024B00040710143E9611CB1A86920F08050A86116
:1024C0003178880705D52A68B06822F44042024373
:1024D0002A603078C10605D52968706921F4800129
:1024E000014329600020BDE8F681000010B50146D7
:1024F000002001292D4C29D0022947D0042918BFDA
:1025000008291FD010294AD161682268D30146D515
:1025100029A0C1F38342C903805C0BD5616800BF69
:1025200029A3234AC1F34041595CB2FBF1F20146B1
:10253000104600E01F49484361684A022FD440001A
:1025400003212AE0BDE8104000F058BB216A40F2A8
:1025500002320A40B2F5817F02D14FF4004010BD33
:1025600001F44073B3F5007F05D1626A930702D589
:1025700049F6404010BD01F44071B1F5407F0ED1E5
:1025800021688A030BD54FF2244010BD00F054FBA4
:102590006168C1F38131491C4900B0FBF1F010BD05
:1025A000041002400070004040044242001002400B
:1025B00000127A0000093D0002030405060708091D
:1025C0000A0B0C0D0E0F101001020000002200F08B
:1025D0005FBB00002DE9F84F002400256A4A6B4BD1
:1025E000DFF8AC814FF00F094FF0010A83468E46A9
:1025F0000CE011680840106007E05660DEF80460E7
:10260000F603F6D5106801431160641CDEF8001073
:1026100031FA04F000F0B0800AFA04F73940B94208
:10262000F3D1DEF8040058B301281AD002281FD0D5
:10263000032833D0112817D012281DD0554EB04290
:102640001CBF554EB0421BD0544EB0421CBF544E1E
:10265000B04215D0534EB0421CBF534EB0420FD0C3
:102660001DE0DEF80C501AE0DEF80C502D1D16E0CF
:10267000DEF80C50083512E0DEF80C500C350EE098
:10268000DEF8080008B9042509E0012819BF08256B
:10269000CBF814700825CBF8107000E00025B1F5D8
:1026A000807F03D258464FEA840C05E0A4F1080667
:1026B0000BF104004FEA860C066809FA0CF7BE43DA
:1026C00005FA0CF73E430660DEF80400C0009CD516
:1026D000D8F8000040F00100C8F80000A600D8F8C3
:1026E000000000F00100009006F00C0C0098A0081B
:1026F00053F8207009FA0CF627EA06062B4FBB4563
:1027000008BF002718D02A4FBB4508BF012713D0A8
:10271000284FBB4508BF02270ED0274FBB4508BF37
:10272000032709D0254FBB4508BF042704D0244FF9
:10273000BB450CBF0527062707FA0CF73E4343F8B5
:102740002060C843DEF80460F60296684CBF0E4372
:1027500006409660DEF80460B602D6684CBF0E43B1
:102760000640D660DEF804605768B6034CBF41EA05
:10277000070600EA070640E7BDE8F18F81B002B91D
:102780000904016101B070470004014008000140E4
:10279000181002400000111000001210000021105B
:1027A000000022100000311000003210000801402B
:1027B000000C0140001001400014014000180140CD
:1027C000001C01402DE9F843040016D02078DFF802
:1027D0007C64C10713D5706800F00C00042807D092
:1027E000706800F00C00082840D17068C1033DD526
:1027F0003168880303D56068002800F0F6802178EE
:10280000DFF85474880719D5706810F00C0F07D0E2
:10281000706800F00C00082862D17068C1035FD4B2
:102820003168880703D52069012840F0DE803168CF
:10283000606921F0F80141EAC001316021780807A0
:1028400072D5A069DFF81414002867D001220A604D
:10285000FFF7D8FD0546706A810700F1C880FFF7D1
:10286000D1FD401B0228F6D9032037E16068B0F59E
:10287000803F0FD038B9316821F480313160306841
:1028800020F4802009E0B0F5A02F316807D141F491
:1028900080213160306840F48030306006E021F4FF
:1028A00080313160326822F480223260606858B131
:1028B000FFF7A8FD054631688803A0D4FFF7A2FD05
:1028C000401B6528F7D3CFE7FFF79CFD054630682E
:1028D000810394D5FFF796FD401B6528F7D3C3E726
:1028E000206970B101213960FFF78CFD0546306821
:1028F000810700F1B680FFF785FD401B0228F6D95D
:10290000B2E73860FFF77EFD05463068810795D550
:10291000FFF778FD401B0228F7D9A5E70860FFF70D
:1029200071FD0546706A810770D5FFF76BFD401B8E
:102930000228F7D998E708B9306A09E00528306A13
:1029400006D140F004003062306A40F0010005E03A
:10295000400840003062306A20F00400306241F2EA
:102960008938E06868B1FFF74DFD8146306A81071C
:1029700000F18480FFF746FDA0EB09004045F5D348
:1029800072E7FFF73FFD8146306A810776D5FFF792
:1029900039FDA0EB09004045F6D365E7FFF732FDAE
:1029A000401B02287BD95FE7FFF72CFD001B0228A4
:1029B00040F28F8058E700F093F8044630688101B8
:1029C00040F18B80FFF71EFD001B0228F6D94BE774
:1029D00001280AD07068226A00F48031914202BF57
:1029E00000F47010616A884277D0012076E0DFF849
:1029F00060020168C9084FF47A72B1FBF2F20092EA
:102A000000BF0098411E00280091F9D120784107AD
:102A100039D5F0690025C10009D4F06940F0805033
:102A2000F0610125F06900F0805000900098DFF817
:102A30003082D8F80010C8051BD4D8F8000040F444
:102A40008070C8F80000FFF7DDFC8146D8F8001060
:102A5000C8050ED4FFF7D6FCA0EB09006528F5D316
:102A600002E73068616920F0F80040EAC100306098
:102A7000E4E6E06801287FF45EAF65E71DB1F06928
:102A800020F08050F061E06938B3716801F00C010A
:102A900008299DD002288ED100F022F80546306822
:102AA00081013FF57BAF206AB0F5803F05D17168A9
:102AB000A06821F40031014371607168206A21F43B
:102AC00074110143606A01437160012000F009F84C
:102AD0000446306881017FF567AF0020BDE8F283CE
:102AE00000203866FFF78EBC2DE9F84304008846C5
:102AF00073D05C4E306800F00700404502D200F011
:102B000072F86AD12068514D810712D5400703D56C
:102B1000686840F4E06068602178080703D5686859
:102B200040F4605068606968A06821F0F0010143DA
:102B300069602078C10748D56068012802D12968FA
:102B40008A0303E0022803D129688A0103D444E000
:102B50002A68910741D56968890840EA8100686060
:102B600041F28939FFF74EFC07466868616800F05A
:102B70000C00B0EB810F28D0FFF744FCC01B484588
:102B8000F3D303201FE02078410705D56968E0688A
:102B900021F4E061014369602078010706D5686887
:102BA000216920F4605040EAC100686000F026F816
:102BB0006A682D49C2F30312895C254AC840106037
:102BC00000F00DF80020BDE8F283306800F0070047
:102BD0008045D8D200F007F8D5D00120F3E723488C
:102BE000006800F06FB83168C90848EAC101316077
:102BF000306800F007004045704700001C49154848
:102C00000A6802F00C03082B00D0704710B500BF13
:102C10001AA4C2F38343D203E35C09D5096800BF59
:102C20001AA2C1F340415843515CB0FBF1F010BD12
:102C300018461049484310BD05480D4A00681368FE
:102C40000D49C3F3C222895CC8407047001002409E
:102C50000C00002000127A00000042428004424230
:102C60000070004000200240F433000808000020FB
:102C70000410024000093D0020340008020304054E
:102C8000060708090A0B0C0D0E0F101001020000B8
:102C900000B500BF130096469446103928BFA0E83F
:102CA0000C50FAD85FEA417C28BF0CC048BF40F8FE
:102CB000042BC90728BF20F8022B48BF00F8012BBE
:102CC00000BD000038B50D4D0D4A297804464FF47B
:102CD0007A70B0FBF1F11068B0FBF1F000F04BF846
:102CE00050B9102C08D2002221464FF0FF3000F0DE
:102CF00025F8AC60002032BD012032BD000000206C
:102D00000C0000200901020081B002D42448815443
:102D100005E0244802F00F02104400F8041C01B042
:102D20007047214A13684FF6FF0100020B4000F480
:102D3000E06018431D4908431060704738B51A4BCE
:102D40001C68C4F30223C3F10704052C28BF042424
:102D50001D1D072D34BF0023DB1E012505FA04F4D9
:102D6000641E2140994005FA03F35B1E1A4011438B
:102D7000BDE83440C6E710B5401EB0F1807F01D3F6
:102D8000012010BD0A4C60600F214FF0FF30FFF7AB
:102D9000B9FF0022A26007202060002010BD0000C3
:102DA00000E400E018ED00E00CED00E00000FA05A2
:102DB00010E000E02DE9F84F00F002F900220121B7
:102DC00000F0E2F80022022100F0DEF801220421E6
:102DD00000F0DAF800F0D6F80022102100F0D4F864
:102DE0000022202100F0D0F80022402100F0CCF891
:102DF00000F0B8F802D1012200F0C5F8202D03D16F
:102E00000122102100F0C0F8402E03D10122202120
:102E100000F0BAF8802F03D10122402100F0B4F86D
:102E20000022042100F0B0F80122042100F0ACF8E7
:102E300000F0A8F80022102100F0A6F800222021BE
:102E400000F0A2F80022402100F09EF8E00702D531
:102E5000012200F098F8B8F1020F03D101221021ED
:102E600000F092F8B9F1040F03D10122202100F003
:102E70008BF8BAF1080F03D10122402100F084F849
:102E800069E02DE9F84F00F09BF80122012100F0E4
:102E90007BF80022022100F077F80122042100F0E3
:102EA00073F800F06FF80022102100F06DF8002296
:102EB000202100F069F80022402100F065F800F0C0
:102EC00051F802D1012200F05EF8202D03D1012239
:102ED000102100F059F8402E03D10122202100F0EA
:102EE00053F8802F03D10122402100F04DF8002239
:102EF000042100F049F80122042100F045F800F017
:102F000041F80022102100F03FF80022202100F0BB
:102F10003BF80022402100F037F8E00702D50122FB
:102F200000F031F8B8F1020F03D10122102100F0B6
:102F30002BF8B9F1040F03D10122202100F024F86D
:102F4000BAF1080F03D10122402100F01DF8002240
:102F5000042100F019F85846BDE8F84F002204217A
:102F6000FFF70CBCC4F30010012804F0200504F0A6
:102F7000400604F0800704F0020804F0040904F09D
:102F8000080A7047002208215846FFF7F7BB80B5B2
:102F900000F019F82820FFF70DFF0620FFF70AFFC1
:102FA000BDE802400C2005E710B500F00BF803E087
:102FB00014F8010BFFF765FF20780028F8D110BD49
:102FC000DFF808B00446012000F028B800100140E6
:102FD00038B504460D46FFF7F6FF032D12D8DFE89B
:102FE00005F00205080BA4F1800007E0A4F1400001
:102FF00004E0A4F16C0001E0A4F12C00BDE8324033
:10300000C0B2D7E631BD80B5FFF7DDFF0120FFF785
:10301000D1FEBDE802400220CCE6000038B50446EF
:10302000FFF7F0F914F1010F054602D004490878C2
:103030000419FFF7E7F9401BA042FAD331BD00BFE6
:103040000000002078B585B000F00AF900F0C0F863
:1030500068461021FFF7BAFA5248534D0168534CA5
:1030600041F010010160026802F01002049204991C
:10307000016841F004010160026802F00402049258
:1030800000220499016841F0080101607F21006875
:1030900000F00800049004982846FFF76FFB002218
:1030A0004FF400412046FFF769FB7F2000F088F8CD
:1030B000284600F082F84FF4C050002100900191A2
:1030C000029100F079F84FF4004000F079F800F038
:1030D00073F8684600210022002380E80E004FF4B8
:1030E0006020334C334DE061A160012020612173E9
:1030F0002175616025602046FEF79AFE08B100F058
:103100009CF8012000900190694600200290204622
:10311000FFF72FF808B100F090F8FFF738FFFFF73E
:1031200072FF1FA0FFF740FF4FF4FA60FFF776FF32
:10313000FFF769FF2046FEF77BFE00BF0FF2141574
:103140003FA61AE02046FFF70BF800F09BF820633B
:1031500000F0A6F802460B46314604F1340000F0B8
:10316000C3F800210020FFF733FF04F13400FFF71C
:103170001BFF4FF47A70FFF751FF2046FEF7E0FE89
:103180004FF47A712046FEF706FF0028DAD00021BE
:103190000020FFF71DFF2846FFF706FFEDE70000C0
:1031A000414443001810024000100140000C01404F
:1031B000900000200024014020466946FFF70ABA2B
:1031C000012100900191002002210290039170479B
:1031D00000B595B00BA82821FFF7F8F9684614212F
:1031E000FFF7F4F905A81821FFF7F0F902200B907A
:1031F00001210F9110201090002112910BA8FFF7D0
:10320000E1FA08B100F019F80F20009000210191B7
:103210000291039104916846FFF766FC08B100F043
:103220000CF8022005900021079105A8FFF7F0F89F
:1032300008B100F002F815B000BD72B6FEE700005C
:1032400076616C7565206973203A2025342E3266CC
:1032500000000000414443204572726F720000007C
:1032600080B50748016841F0100101600320FFF7B5
:1032700058FD0F20FFF726FDFFF776F8002002BD6E
:103280000020024000280AD0B0FA80F18840D1F135
:103290009D01C905020672F1004241EB1020704702
:1032A000C0F3C75181B1FF2906D0C110400721F0FA
:1032B000E04101F16051704741020CBF40F4E00170
:1032C0006FF000410020704700F0004100020AD07A
:1032D000B0FA80FC00FA0CF001F16051A1EB0C5146
:1032E00001EBD021400570470CB430B583B00446E3
:1032F00006A802900A4600250194009502AB01A998
:10330000084878441E30FCF713FF01990D7000281F
:103310004EBF04460198041B204603B030BC5DF844
:103320000CFB00BF4BDEFFFF30B50168846842181C
:10333000416802EB5103C9070BD54C4409E012F96F
:10334000011B12F8015B002904F8015B05D5491C3B
:10335000F9D19A42F3D10C3030BD491EF1D5F8E7CE
:1033600010B5074979441831064C7C44163404E002
:103370000A68081D114488470146A142F8D110BDD2
:103380000800000014000000A1FFFFFF92010000F0
:10339000B20000000000002000F00DF8002801D06D
:1033A000FFF7DEFFAFF300800020AFF30080FFF7F0
:1033B00049FE00F002F80120704700F001B800005B
:1033C00007463846FEF72AFDFBE7FEE7FEE7FEE785
:1033D000FEE7FEE770477047704700F001B8000055
:1033E00002494A68087882184A6070470000002045
:1033F000704700000000000000000000010203040C
:10340000060708090148804701480047F1330008D2
:1034100015340008AFF30080AFF30080FFF7BCFF66
:10342000000000000102030400002E004300FFF72B
:10343000FEBFFFF7FEBFFFF7FEBFFFF7FEBFFFF7C0
:10344000FEBFFFF7FEBFFFF7FEBFFFF7FEBFFFF7B0
:10345000FEBFFFF7FEBFFFF7FEBFFFF7FEBFFFF7A0
:10346000FEBFFFF7FEBFFFF7FEBFFFF7FEBFFFF790
:10347000FEBFFFF7FEBFFFF7FEBFFFF7FEBFFFF780
:10348000FEBFFFF7FEBFFFF7FEBFFFF7FEBFFFF770
:10349000FEBFFFF7FEBFFFF7FEBFFFF7FEBFFFF760
:1034A000FEBFFFF7FEBFFFF7FEBFFFF7FEBFFFF750
:1034B000FEBFFFF7FEBFFFF7FEBFFFF7FEBFFFF740
:1034C000FEBFFFF7FEBFFFF7FEBFFFF7FEBFFFF730
:1034D000FEBFFFF7FEBFFFF7FEBFFFF7FEBFFFF720
:1034E000FEBFFFF7FEBFFFF7FEBFFFF7FEBFFFF710
:1034F000FEBFFFF7FEBFFFF7FEBFFFF7FEBFFFF700
:10350000FEBFFFF7FEBFFFF7FEBFFFF7FEBFFFF7EF
:10351000FEBFFFF7FEBFFFF7FEBFFFF7FEBF0001D4
:10352000F9000010FC001E24F400283400082834A0
:1035300000082834000828340008283400082834FB
:10354000000828340008F8FF0B2A3400082834004B
:103550000828340008FAFF0600002C34000801FD9A
:10356000000310000020D80003D9100008FC00045C
:07357000C710000801B100C3
:0400000508003415A6
:00000001FF
